:020000040800F2
:1000000000C00020C5290008312900083529000852
:10001000392900083D290008412900080000000096
:10002000000000000000000000000000452900085A
:1000300049290008000000004D2900085129000846
:100040000D2A00080D2A00080D2A00080D2A0008B4
:100050000D2A00080D2A00080D2A00080D2A0008A4
:100060000D2A00080D2A00080D2A00080D2A000894
:100070000D2A00080D2A00080D2A00080D2A000884
:100080000D2A00080D2A00080D2A00080D2A000874
:100090000D2A00080D2A00080D2A00080D2A000864
:1000A0000D2A00080D2A00080D2A00080D2A000854
:1000B0000D2A0008552900080D2A00080D2A0008FD
:1000C0000D2A00080D2A00080D2A00080D2A000834
:1000D0000D2A00080D2A00080D2A000861290008D1
:1000E0000D2A00080D2A00080D2A00080D2A000814
:1000F0000D2A00080D2A00080D2A00080D2A000804
:100100000D2A00080D2A00080D2A00080D2A0008F3
:100110006D2900080D2A00080D2A00080D2A000884
:100120000D2A00080D2A00080D2A00080D2A0008D3
:1001300000000000000000000000000000000000BF
:1001400000000000000000000000000000000000AF
:10015000000000000000000000000000000000009F
:10016000000000000000000000000000000000008F
:10017000000000000000000000000000000000007F
:10018000000000000000000000000000000000006F
:10019000000000000000000000000000000000005F
:1001A000000000000000000000000000000000004F
:1001B000000000000000000000000000000000003F
:1001C000000000000000000000000000000000002F
:1001D000000000000000000000000000000000001F
:0401E0005FF8E0F1F3
:1001E40010B5054C237833B9044B13B10448AFF36D
:1001F40000800123237010BD58020020000000007D
:100204008C51000808B5034B1BB103490348AFF3F5
:10021400008008BD000000005C0200208C51000832
:10022400034613F8012B002AFBD1181A0138704732
:100234000120704710B58446144682B00B46042250
:1002440061460094A02000F08FF9012002B010BD97
:100254000122014B1A70704788020020034B1B785F
:1002640013B10222024B1A70704700BF88020020AB
:100274008702002008B5054A054B127853F822007E
:1002840000F016FA0522034B1A7008BD86020020FE
:10029400400000208702002008B5034800F008FA57
:1002A4000722024B1A7008BDA451000887020020DF
:1002B40008B5074800F0FCF90022064B4FF4C8715A
:1002C40005481A7001F00AFF0122044B1A7008BD98
:1002D400B05100088802002055020008870200205F
:1002E40000224FF0030C064B10B4064C1A7084F82D
:1002F40000C04FF4FA61044810BC01F0EFBE00BF27
:1003040088020020870200205502000810B50B4C1B
:10031400237813B100220A4B1A7001F055FE03280A
:1003240003D0BDE8104001F055BE01F053FE042295
:100334000121034B21701A7010BD00BF88020020F8
:100344008702002038B5164C237803B938BD01F074
:100354003BFE054638B10128F8D101F03BFE0822E6
:10036400104B1A7038BD01F035FE0F4A1378072B75
:1003740004D906210B4B1570197038BD04200133C4
:10038400DBB20849062B13700870DFD12A462570AA
:100394004FF4FA71BDE83840044801F09FBE00BF35
:1003A40088020020870200208602002055020008EF
:1003B40038B501F009FE012809D0062806D1114CF0
:1003C40025780F2D09D000F09BF998B938BD01F0BC
:1003D40001FE08220C4B1A7038BD0023237001F073
:1003E400F9FD0822084B29461A700848BDE8384030
:1003F40000F0DEB925786B1C237000F08FF9034BF5
:10040400585538BD84020020870200207402002061
:10041400154B164A1B7812789A4208D0082B06D836
:10042400DFE803F0090C0F1215181B1E06007047B5
:100434000F4800F0A9B90F4800F0A6B90E4800F023
:10044400A3B90E4800F0A0B90D4800F09DB90D48BD
:1004540000F09AB90C4800F097B90C4800F094B930
:100464000B4800F091B900BF8702002085020020EC
:10047400B0520008BC510008D0510008F4510008E3
:100484000C52000834520008485200087052000808
:100494008852000808B5FFF7BBFF074B074A1B78D3
:1004A400072B137006D8064A02EBC3035B68984710
:1004B400002008BD012008BD87020020850200201D
:1004C40000000020014B1870704700BF8702002015
:1004D4000022014B1A70704787020020134B84B02E
:1004E4009A6942F010029A619A6902F0100200922D
:1004F400009A9A6942F020029A619A6902F02002F5
:100504000192019A9A6942F004029A619A6902F08E
:1005140004020292029A9A6942F008029A619B6963
:1005240003F008030393039B04B0704700100240D8
:1005340000234FF4804210B508480949094CC0E92A
:100544000233C0E90041C0E90423C0E90633036271
:1005540002F0ACFF003818BF012010BD8C0200204F
:10056400801A06000054004070B594468E46064634
:100574001D464FF47A7484B0BDF82030314601939F
:100584007246634600950294034803F057F8003816
:1005940018BF012004B070BD8C02002030B591B0AA
:1005A4002022002107A804F08DF901241022002341
:1005B4000A210225CDE90A424FF4601206A8CDE9CA
:1005C4000C45CDE90233CDE90433069101930F9232
:1005D40003F08EF910B1204611B030BD03460F224E
:1005E400039305934FF48063294601A80295019271
:1005F400049303F095FB0028EED002F00FF8204698
:10060400EAE700BF0022632138B50F4B0F481B688F
:100614000F4CA0FB03030F485B0B013B0E4D036023
:100624002046C4E90312C4E9052263602560A26080
:1006340003F070FD08B1012038BD204603F030FC02
:10064400003818BF012038BDE80100205917B7D180
:10065400E0020020280300200004004001F028BD2F
:1006640038B54FF4E13100230C220E4C0E48C4E996
:10067400011320602046C4E90333C4E90523E36180
:1006840003F028FE08B1012038BD054601222046AA
:10069400064903F0C5FE0028F6D001F0BFFF284646
:1006A40038BD00BF74130020004C0040C01300206C
:1006B40070B50646FFF7B4FD85B205B970BDFF23DA
:1006C4002A4631460B4803F037FE60B90A4C2378BA
:1006D400002BFCD02A463146084803F087FE28B98F
:1006E4000023237070BD01F099FFEFE701F096FF3E
:1006F400F6E700BF2C1300206400002074130020D0
:10070400044A054B10881B8880B29BB2C01A18BFDC
:1007140001207047BE130020BC1300200A4A0B4B73
:1007240011881B8889B29BB299420AD01388084960
:100734009BB2C85C1388C0B20133C3F30B031380AC
:100744007047FF20704700BFBE130020BC13002079
:100754002C03002000234FF4E1310C2210B508488B
:10076400084CC0E90113C0E90333C0E90523046060
:10077400C36103F0AFFD003818BF012010BD00BFF6
:100784002C1300200048004010B50446FFF748FD34
:1007940082B202B910BDFF232146044803F0CCFD08
:1007A4000028F7D0BDE8104001F038BF2C1300201A
:1007B400844608B50A46C8236146044803F0BCFDD4
:1007C40000B908BDBDE8084001F028BF2C13002083
:1007D4000B4B02689A4200D0704710B4094C0A4986
:1007E40023880A4A91F800C09BB202F803C0012290
:1007F40023881344C3F30B03238010BC03F010BEFF
:10080400004C0040BC130020C01300202C03002027
:100814000122014B1A707047640000204FF480528B
:10082400002108B5044804F04DF800230349044AA4
:100834000B80138008BD00BF2C030020BC130020D4
:10084400BE130020704700BF0122014B1A7070478D
:10085400C8000020002238B50A4B0B4C1A60FFF781
:10086400DDFF23783BB90948FFF722FF0123084A3B
:100874002370137038BD074B044D0FCB07C52B8075
:10088400F1E700BFC413002066000020DC23002031
:10089400782400206C53000810B50E4CFFF7BEFFFF
:1008A40023783BB10C4B1B786BB14D220B490C48A0
:1008B40003F0E0FF0A48FFF7FBFE03220121094B86
:1008C40021701A7010BD084A0849054804F002F85E
:1008D400F0E700BF660000206D0000207C53000894
:1008E400DC2300207824002080270020CC5300083B
:1008F40038B5094C237843B90848FFF7D9FE0922D3
:100904000121074B21701A7038BD064B034D0FCBE4
:1009140007C52B80F0E700BF66000020DC23002021
:10092400782400202054000808B501F04DFB38B1AC
:10093400012804D101F04EFB0B22044B1A7008BDB0
:1009440001F048FB0222014B1A7008BD78240020F4
:1009540008B501F039FB38B1012804D101F03AFBA4
:100964000B22044B1A7008BD01F034FB0422014B26
:100974001A7008BD7824002010B501F025FB044648
:1009840038B1012804D101F025FB0B22034B1A7066
:1009940010BD01F01FFB014B1C7010BD782400201A
:1009A40070B50E4CFFF73AFF23787BB90C48FFF77C
:1009B4007FFE012500220B4BC8210B481A702570BD
:1009C40001F08CFB0522094B1A7070BD044D084ED2
:1009D4000FCE0FC533682B80E8E700BF6600002008
:1009E400DC230020C80000204D08000878240020E3
:1009F40030540008F8B5364B364C1B7822689BB946
:100A0400002A47D0344B354E1F683378BD1A03EBA8
:100A14008303B5EBC32F46D8B2F5806F32D9A2F564
:100A2400806222604FF480622D4D2B782BBBFFF740
:100A3400F5FE22682B492C4803F04CFF2A48FFF7A7
:100A4400A3FE2A4B2A491A88274803F043FF264865
:100A5400FFF79AFE2748FFF72BFE0022264B64215E
:100A640026481A7001F03AFB012364202B7002F02F
:100A740015F80722224B1A70F8BD22491D4803F0CD
:100A840029FFD4E740F2FE33511E99429CBF002354
:100A94002360C9E71C49144803F01CFF1248FFF700
:100AA40073FE2268B8E7642202FB05F5B5FBF7F292
:100AB400164B17491A700C48D2B203F00BFF0A48C0
:100AC400FFF762FE3378226801333370A4E700BF76
:100AD4006D00002074240020D8230020E02500208D
:100AE4006600002078540008AC250020D4230020A0
:100AF40094540008DC230020C80000204D0800089E
:100B04007824002064540008445400088E510020C6
:100B14005454000870B51F4C1F4D2678FFF7FEFD96
:100B240084462178642228461C4B013105F806C00E
:100B340001F040F9C8B10122194B1A70194E2178FD
:100B4400327842B16A5C0D2A1FD01748174D0378DA
:100B5400EA54013303706422154B0F48013101F04C
:100B640029F930B10123337003E00D4B1A78002AC0
:100B7400E4D1642123780F4A0133A2FB03525209C2
:100B840001FB12330020237070BD002232701A70F2
:100B9400012070BD7C27002018270020AC540008D9
:100BA400E2250020E625002086270020802700205B
:100BB4003C5300081F85EB51194B1A4A1B781178D6
:100BC40099420AD013700A2B07D8DFE803F00A0D04
:100BD400101316191C1F2225070070471248FFF72F
:100BE400D3BD1248FFF7D0BD1148FFF7CDBD114862
:100BF400FFF7CABD1048FFF7C7BD1048FFF7C4BDD3
:100C04000F48FFF7C1BD0F48FFF7BEBD0E48FFF701
:100C1400BBBD0E48FFF7B8BD0D48FFF7B5BD00BF1B
:100C240078240020E325002084550008B8540008E7
:100C3400C8540008E0540008F0540008085500089F
:100C44001855000834550008445500085C55000840
:100C54006C55000808B5FFF7AFFF0A4B1B78092B4A
:100C640008D90A2B01D0022008BD0748FFF78CFDE4
:100C7400012008BD054A02EBC3035B6898470020C6
:100C840008BD00BF7824002094550008700000209F
:100C94002DE9F0474FF000091B4E4F1F4F45884682
:100CA400054686F800902CDD15F8090001F0B6F829
:100CB40005EB090282465078347801F0AFF809F167
:100CC400020923181FFA89F903EB0A13DBB2B945A9
:100CD4003370E9DB5B42DBB23370454415F8050C35
:100CE40001F09CF8044615F8040C01F097F83378E9
:100CF40000EB0410C0B2181AB0FA80F04009BDE845
:100D0400F0874B46E8E700BFC11300202DE9F84FF8
:100D1400AC4CAD4D2688FFF701FD844621884FF485
:100D240096722846A94B013105F806C001F042F835
:100D340000283CD0A64D2988B1F5006F19D2A54BE7
:100D44001E68002E00F074812188A04B4FF4967227
:100D54009D48013101F02EF89F4E338800284FD072
:100D64000D3B9BB2002210469C4933800A70BDE8BB
:100D7400F88F9B4E0121306801F08CFA4FF4006229
:100D84009849306801F0A2FA33682A8803F50063B1
:100D9400B2F5006F336040F2E7819349A2F5006633
:100DA4003246A1F5006003F073FD2E80CCE7218864
:100DB4004FF4967228468D4B013100F0FBFF00285A
:100DC400B8D1864E3378F3B1894F3B786BB3218821
:100DD4004FF49672874B7C48013100F0EBFF0028FA
:100DE40040F0CA814FF496712388834A0133A2FBF1
:100DF4000302520901FB123301202380BDE8F88F5E
:100E04000C3B9BB2AEE721884FF4967228467B4B8D
:100E1400013100F0CFFF002840F0A981744F3B78E6
:100E2400002BD4D13378002BDCD04FF496786A4E63
:100E340071493388724F5A1CA1FB0201490908FB0E
:100E4400112122883846AA5C3180FA54614B42460B
:100E54001B68002B40F0FB806A4B00F0ABFF38B9F5
:100E640042463846684B318800F0A4FF0028B9D0C8
:100E74004FF49672634B3188614800F09BFF002861
:100E840000F085813288023A92B23280DFF87C81A8
:100E940098F800306BB1002A00F0F0815C49551ECF
:100EA400ADB2481E03F0F4FC2A460023328088F8D1
:100EB400003011465248FFF7EBFE002800F0628133
:100EC400F87900F0ABFF8146002840F07081B878D3
:100ED40000F0A4FF8246F87800F0A0FF05463879B8
:100EE40000F09CFF2D0205EB0A358246787900F06C
:100EF40095FFADB2474A2B18DFF81C8103EB0A13A8
:100F040011789BB2A8F8003051B1444982F800909E
:100F14000A68434843EA024282420A6040F09781E9
:100F2400DFF800B1DFF80091BBF8001099F8002059
:100F34000A449A1A3D4B92B21A806AB1FF21244D99
:100F4400DFF8A0A02B881A4492B20AF803100133E8
:100F54009BB29A42F9D12A80387800F05FFF0546A7
:100F6400787800F05BFFB8F80030ABF8003000EBA5
:100F7400051389F8003033880D2B20D94FF0080869
:100F8400C146134DDFF85CA017F8090000F046FFD6
:100F94000346B94499F80100994600F03FFF2B88B5
:100FA40000EB09100AF8030001332B80338808F1A1
:100FB40002081FFA88F8053B9845C146E4DB002384
:100FC40033800FE714270020E8250020A8550008E7
:100FD400D423002074240020A8250020E525002027
:100FE40068000020D4130020D41B0020B85500084A
:100FF400E12500203C530008B5814E1BAC54000889
:101004007C240020C8550008CC5500086C00002042
:101014007D2400206E000020C8130020CC13002083
:1010240000000208D0130020E4250020DE25002063
:10103400954F386801F02EF92A889449386801F0F0
:1010440045F92B883A682E8013443B607CE6904B2C
:1010540000F0B0FE00283FF4C5AEDFF8388298F8FF
:101064000030002B40F09580358829468A48FFF7E8
:101074000FFE002800F08680F87900F0CFFE81464C
:10108400002840F0B880B87800F0C8FE8246F878AE
:1010940000F0C4FE0546387900F0C0FE2D0205EBD1
:1010A4000A358246787900F0B9FEADB27B4A2B1836
:1010B400DFF8EC8103EB0A1311789BB2A8F8003037
:1010C400002940F0C680DFF8DCB1DFF8DC91BBF822
:1010D400001099F800200A449B1A9AB2734B1A80A4
:1010E4006AB1FF21724DDFF8A4A12B881A4492B291
:1010F4000AF8031001339BB29342F9D12B8038785C
:1011040000F08CFE0546787800F088FEB8F80030D0
:10111400ABF8003000EB051389F8003033880D2B51
:101124007FF64DAF4FF00808C146614DDFF85CA172
:1011340017F8090000F072FE0346B94499F801005B
:10114400994600F06BFE2B8800EB09100AF80300A7
:1011540001332B80338808F102081FFA88F8053B15
:101164009845C146E4DB2AE7A2F500661DE60123A3
:10117400504A18461370FAE50123002218463370CA
:101184003A70F4E500224C4B02201A70EFE53288E5
:101194007CE63288002A74D0551E3846791CADB2DC
:1011A40003F076FB0023358088F800305DE7F8799A
:1011B40000F034FE04287FF402AF387A00F02EFEEB
:1011C4008046787A00F02AFE3C4D3D4B05EA08350E
:1011D40003EA0023B87A1D4400F020FE0246394B8E
:1011E400F87A03EA02131D4400F018FE364A83B26B
:1011F4002B441360E3E6F87900F010FE04287FF432
:10120400DEAE387A00F00AFE8046787A00F006FEF8
:101214002A4D2B4B05EA083503EA0023B87A1D440E
:1012240000F0FCFD0346274AF87A02EA031215444B
:1012340000F0F4FD0246244B92B22A442349244888
:101244001A6003F047FB2248FFF79EFAB7E6032033
:101254008DE51D4D82F800902A681E4943EA02423A
:101264001B482A6003F036FB1948FFF78DFA2A68F9
:10127400194B9A42EBD1B8F8003024E74FF6FF72CD
:1012840013E64FF6FF758DE768000020D4130020A5
:10129400CC5500086C0000207C2400206E00002047
:1012A400C8130020D0130020E4250020DE250020F0
:1012B400D4230020E12500206500002000F0FF0F6A
:1012C40000FFFF00F0FF0F00CC130020E8550008DA
:1012D400AC250020D05500080000020838B5274C82
:1012E400237823B100F070FE054658B138BD00F0F4
:1012F4006BFE0028FAD1FFF703FA90B90122204BC4
:101304001A7038BDFFF7FCF90028EFD0FFF702FC94
:101314000028EBD0257000F05DFE0222194B1A70F4
:1013240038BDFFF7F3FC164B022818701BD00328B6
:101334000DD00028DAD1144B1B68CBB91348FFF742
:1013440023FA01F0DFF90A220E4B1A7038BD104857
:10135400FFF71AFA0D48FFF717FA01F0CDF90A2240
:10136400084B1A7038BD0B48FFF70EFA0A48F2E72B
:1013740000F030FE0622034B1A7038BD6D000020C9
:101384008F5100207824002074240020FC5500088C
:10139400505600081C5600083056000810B5FFF7D8
:1013A400AFF908B9002010BDFFF7B8F90D2812D025
:1013B4000B490A78022A05D02C28F3D101320A708D
:1013C400002010BD074C236803EB830300EB4303A9
:1013D400303B2360F0E70022014B01201A7010BD5E
:1013E40072240020C4130020174B1B7803B97047E4
:1013F40010B500F0E9FD012820D0052805D000B182
:1014040010BDBDE8104000F0E5BDFFF7C7FF0028A0
:10141400F6D000240D4B0E481A680E4902600A608B
:101424000D480E491C6003F055FA0B48FFF7ACF960
:1014340000F0D0FD06220A4B1A7010BD00F0CAFD60
:101444000B22074B1A7010BDC8000020C4130020E3
:1014540074240020D8230020AC25002074560008F2
:1014640078240020014B1878704700BF78240020AE
:10147400014B1870704700BF782400200122014BF3
:101484001A707047923C0020704700BF0122014B44
:101494001A707047A001002010B5FFF7BFF900F0E3
:1014A400F5FE024609490832094803F013FA094CCB
:1014B400094B0FCB84E80F002046FFF7F9F8012011
:1014C40002220649064B08701A7010BD7C560008AB
:1014D400CD0000208827002084560008C900002081
:1014E400923C002030B500250A4B0B4C83B013F816
:1014F400012B0A492046009503F0ECF92046FFF73A
:10150400D7F8012004220649064B08701A7003B06C
:1015140030BD00BFCC00002088270020945600086E
:10152400C9000020923C002010B5154A84B0D2E9CD
:101534000E3192F84000CDE90231124C92F841107C
:10154400536B1278CDE900100F49204603F0C2F91D
:101554002046FFF7ADF800224FF0010C0B4B0C4C6A
:101564004FF496710B481A7084F800C000F0B6FD71
:1015740006220949094B08601A7004B010BD00BF67
:10158400CC00002088270020AC560008A0010020D1
:10159400C900002091140008943D0020923C0020D2
:1015A40010B50E4C00F016FD0D49204603F0B2F9BB
:1015B40000220C4B4FF496710B481A7000F08EFD0C
:1015C40002460A4B20461A60FFF772F801200A22ED
:1015D4000749084B08701A7010BD00BF8827002007
:1015E400943C0020A001002091140008943D0020A8
:1015F400C9000020923C002010B50D4C0D49204636
:1016040003F088F900220C4B4FF496710B481A70C2
:1016140000F064FD02460A4B20461A60FFF748F8C2
:1016240001200E220749084B08701A7010BD00BF34
:1016340088270020C63C0020A00100209114000847
:10164400943D0020C9000020923C002030B5154B89
:1016540085B093F8FD5093F8FC1093F8FB00124CFE
:10166400124A029593F8FA301278019100901049C9
:10167400204603F02FF900220E4B4FF496710E48CA
:101684001A7000F02BFD02460C4B20461A60FFF73F
:101694000FF8012010220A490A4B08701A7005B08D
:1016A40030BD00BF943C002088270020CC000020DF
:1016B400D0560008A001002091140008943D002099
:1016C400C9000020923C002010B500F083FC1048B3
:1016D400FEF7A6FD0F4C104A034610491278204627
:1016E40003F0F8F800220E4B4FF496710D481A706F
:1016F40000F0F4FC02460C4B20461A60FEF7D8FFBB
:101704000120082209490A4B08701A7010BD00BF55
:10171400943C002088270020CC000020F0560008CC
:10172400A001002091140008943D0020C90000206D
:10173400923C002010B51048FEF772FD0F4C104A81
:10174400034610491278204603F0C4F800220E4BD9
:101754004FF496710D481A7000F0C0FC02460C4B11
:1017640020461A60FEF7A4FF01200C2209490A4B07
:1017740008701A7010BD00BFC63C002088270020E6
:10178400CC00002008570008A00100209114000894
:10179400943D0020C9000020923C002008B500F0D0
:1017A40013FC28B1012809D0BDE8084000F012BCA0
:1017B40000F010FC0322064B1A7008BD00F00AFC6E
:1017C4000448FEF7E1FF1222014B1A7008BD00BF66
:1017D400923C00202057000808B500F0F5FB28B122
:1017E400012809D0BDE8084000F0F4BB00F0F2FB8A
:1017F4000522064B1A7008BD00F0ECFB0448FEF706
:10180400C3FF1222014B1A7008BD00BF923C002096
:101814003C57000808B50F4B1B7803B908BD00F00E
:10182400D3FB98B101280DD100F0D4FB0A48FEF790
:10183400ABFF1222094B0A491A700868BDE8084038
:1018440000F0BCBCBDE8084000F0C4BB00F0C2FB23
:101854001122EFE7A001002060570008923C00200D
:10186400943D002008B51B4B1B7843B11A48FEF782
:101874008BFF00F0AFFB1222184B1A7008BD00F06A
:10188400A3FB0138032820D801A353F820F000BF9C
:10189400C3180008BB180008A51800088118000820
:1018A40000F098FB12220D4B0D491A700868BDE830
:1018B400084000F083BC00F08DFB0922F3E700F040
:1018C40089FB0848FEF760FFECE7BDE8084000F03C
:1018D40081BB00BFA00100207C570008923C00207F
:1018E400943D00208857000808B51B4B1B7843B172
:1018F4001A48FEF749FF00F06DFB1222184B1A70CC
:1019040008BD00F061FB042821D801A353F820F09E
:101914004B1900083F190008531900082919000839
:101924000519000800F056FB12220D4B0D491A70E0
:101934000868BDE8084000F041BC00F04BFB0A48D1
:10194400FEF722FFF0E700F045FB0B22EDE7BDE8D0
:10195400084000F03FBB00BFA00100207C570008F6
:10196400923C0020943D0020A457000808B51B4B6E
:101974001B7843B11A48FEF707FF00F02BFB122235
:10198400184B1A7008BD00F01FFB0138032820D83B
:1019940001A353F820F000BFCB190008C3190008B5
:1019A400AD1900088919000800F014FB12220D4B30
:1019B4000D491A700868BDE8084000F0FFBB00F04C
:1019C40009FB0D22F3E700F005FB0848FEF7DCFEF7
:1019D400ECE7BDE8084000F0FDBA00BFA00100201C
:1019E4007C570008923C0020943D0020C457000816
:1019F40008B51F4B1B7843B11E48FEF7C5FE00F027
:101A0400E9FA12221C4B1A7008BD00F0DDFA042812
:101A140029D801A353F820F0631A0008471A0008D4
:101A24006B1A0008311A00080D1A000800F0D2FAE7
:101A34001222114B11491A700868BDE8084000F0E1
:101A4400BDBB0F48FEF7A0FE12220C490A4B0868E2
:101A54001A7000F0B3FBBDE8084000F0BBBA00F018
:101A6400B9FA0F22E5E7BDE8084000F0B3BA00BFB9
:101A7400A00100207C570008923C0020943D0020E7
:101A8400E057000808B5234B1B7843B12248FEF702
:101A94007BFE00F09FFA1222204B1A7008BD00F062
:101AA40093FA042832D801A353F820F0E71A000867
:101AB400DB1A0008111B0008C51A0008A11A000847
:101AC40000F088FA1222154B15491A700868BDE80F
:101AD400084000F073BB00F07DFA1248FEF754FE94
:101AE400F0E700F077FA11220C4B1A7000F0D0FFE7
:101AF4000D4902460D4802F0EDFE0C48FEF744FE87
:101B0400074B1868BDE8084000F058BBBDE8084022
:101B140000F060BAA00100207C570008923C00202D
:101B2400943D002000580008E8560008842800204E
:101B340008B5364A364B11781B7899420DD013708C
:101B4400112B0AD8DFE803F03A35302B26211C1775
:101B54000A0D125D58534E49443F08BD2D48FEF707
:101B640013FEBDE808402C48FEF70EBE2B48BDE826
:101B74000840FEF709BE2A48BDE80840FEF704BE47
:101B84002848BDE80840FEF7FFBD2748BDE80840E7
:101B9400FEF7FABD2548BDE80840FEF7F5BD244828
:101BA400BDE80840FEF7F0BD2248BDE80840FEF756
:101BB400EBBD2148BDE80840FEF7E6BD1F48BDE87F
:101BC4000840FEF7E1BD1E48BDE80840FEF7DCBD55
:101BD4001C48BDE80840FEF7D7BD1B48BDE80840D7
:101BE400FEF7D2BD1948BDE80840FEF7CDBD184840
:101BF400BDE80840FEF7C8BD1648BDE80840FEF73A
:101C0400C3BD1548BDE80840FEF7BEBD933C0020A7
:101C1400923C0020D4580008EC58000804590008ED
:101C2400C4580008A85800089458000870580008C0
:101C3400545800083C5800082C5800081C58000848
:101C4400BC590008A05900088C5900086C590008B8
:101C540054590008385900082459000808B5FFF7FA
:101C640067FF084B1B78112B08D0122B08D0064AAB
:101C740002EBC3035B689847002008BD012008BD40
:101C8400022008BD923C002010010020014B18786E
:101C9400704700BF923C0020014B1870704700BF92
:101CA400923C0020034630B50C46C1B01946684644
:101CB40002F030FE21460DF1320002F02BFE00232B
:101CC4004FF0010E4FF0780C0F4D104A2C786946F6
:101CD400C4EBC41002EB4000FE228DF8FC308DF8FA
:101CE400FD308DF8FAE08DF8FBC002F0C3FD084B1F
:101CF4000134A3FB04231B0903EB8303A4EB830438
:101D04002C7041B030BD00BF903C0020B8280020AA
:101D1400CDCCCCCC38B50C4D0C4B2C78FE22C4EB7E
:101D2400C41103EB41010A4802F0A4FD0721094B49
:101D34000134A3FB0423084A1B0903EB8303A4EB2C
:101D4400830411702C7038BD913C0020B828002009
:101D5400943C0020CDCCCCCC923C0020034A044BD4
:101D640010781B78C01A18BF01207047903C0020DF
:101D7400913C002070B5044610460E461546FEF709
:101D84004FFAC1B2B14211D891B1761A0139C9B230
:101D9400731E2144314423446A1E01E08B4207D060
:101DA40013F8014F12F8010F8442F7D0002070BDE0
:101DB400012070BDF8B5054618461F460E46144668
:101DC400FEF72EFA83B233B3184603F1FF3C631CCB
:101DD4003344A6EB000EDB1B1FFA8CFCC7F1010693
:101DE400181ABC447B1E764401E09C4513D0F118BC
:101DF400C218BEF1000FB5BF92FBF4F1B1FBF4F2CF
:101E040004FB112104FB121113F8012F695C9142A8
:101E1400EBD00020F8BD0120F8BD00BFA0F13003D5
:101E24000246D8B2092806D9A2F14103052B9CBF6A
:101E3400A2F13700C0B270472DE9F0414D4C237830
:101E44000A2B01D0BDE8F081FEF75AFC0028F9D036
:101E5400FEF764FC0246484D484E2B780121F018E9
:101E6400F254FEF7A5FC2978454B0131C9B230463E
:101E74001A682970FFF77EFF074630B14148FEF724
:101E840083FC00232B702370DCE730463E4A29781C
:101E9400FFF770FF804670B930463C4A2978FFF757
:101EA40069FF074670B13A48FEF76EFC032385F8D4
:101EB40000802370C6E73748FEF766FC01232F70C5
:101EC4002370BFE73046344A2978FFF753FF804632
:101ED40030B13248FEF758FC06232F702370B1E767
:101EE40030462F4A2978FFF745FF074638B12D4879
:101EF400FEF74AFC052385F800802370A2E73046EC
:101F0400294A2978FFF736FF804630B12748FEF783
:101F14003BFC07232F70237094E73046244A29782A
:101F2400FFF728FF38B12348FEF72EFC082385F875
:101F34000080237086E730461F4A2978FFF71AFF8E
:101F440038B11E48FEF720FC002209232A702370B2
:101F540078E71B4A29780948FFF70CFF00283FF46B
:101F640071AF1848FEF710FC002202232A70237078
:101F740068E700BFA8010020984D0020983D00208C
:101F8400A40100200C5A0008C85A0008005B00088D
:101F9400205A0008145A0008F05A00082C5A000865
:101FA400085B0008405A0008E45A00085C5A00081C
:101FB400DC5A00087C5A0008D05A0008985A0008D5
:101FC400FC5A0008B85A0008014B1878704700BF43
:101FD400A80100200A22014B1A707047A8010020B2
:101FE40030B5324C0023214602E00133282B5BD06C
:101FF4000D699C468542DAB201F11401F5D1511EF6
:1020040025293BD9272A2AD00132D1B201EB8101FB
:1020140054F821009900D2B20B4402EB820104EB84
:10202400830304EB810101E054F820008D681860FB
:102034009D60486894465860087B0132187302F129
:10204400FF3E0D695FFA8EFED0B2BEF1260F1D6110
:1020540001F1140103F1140300EB8000E4D900231F
:102064000CEB8C0C04EB8C0213734FEA8C0C0120E8
:10207400C2E9013344F80C30136130BD0132D1B2EE
:1020840001EB810154F8210004EB810C0028C1D03C
:1020940003EB830104EB81014D68DCF8041029444F
:1020A400CCF804109900B6E7002030BD9C4D002008
:1020B4000849094A0B68106801330B6030B1137B7F
:1020C40023B953681BB1013B536003B1704701232B
:1020D40013737047BC5000209C4D002000232DE951
:1020E400F041334D9C46AE462C4606E02668143437
:1020F400002E43D00133282B56D066686746B4447B
:102104008C45DEB2F2D9ACEB0104C91B03EB8307A7
:102114000EEB8707272E7C604FEA830C16D0C6F19E
:102124002606244FF6B206EB8606A7EB8607D5F8FB
:10213400F882D5E9BF46C5E9C446D5F80843C5F8D1
:102144000C83C5F81C43143DBD42F0D1B1FA81F5AE
:10215400194E0CEB03044EF8240030680EEB840493
:102164006D090130C4E9011225731BD063440EEBE1
:10217400830E3060CEF81000BDE8F081A1EB0C01B5
:10218400B1FA81F50C4E03EB83044EF82400306859
:102194000EEB84046D090130C4E901124FEA830C8B
:1021A4002573E3D10120E1E7DEF83003BDE8F081D7
:1021B4009C4D0020884D0020C050002008B1FFF73E
:1021C4000FBF704770B50B4C237B53B123689847FE
:1021D400002320692668A568237308B1FFF700FF70
:1021E40005B970BD2A4629463046BDE87040FFF760
:1021F40075BF00BF9C4D002010B586B001AC122203
:1022040021460020FEF716F80DF103020DF10B0331
:1022140001E09A4208D012F8011FFF29F9D0154AAB
:1022240094E8030082E8030004F1110101E08B4209
:1022340009D013F8012FFF2AF9D00F4B06AA12E98F
:10224400070003C31A800D48FEF79EFA094A0C4999
:102254000C4802F03FFB0B48FEF796FA064A0A497F
:10226400084802F037FB0748FEF78EFA002006B054
:1022740010BD00BFAC010020B4010020185B0008B1
:102284002C5B0008C45000203C5B000800487047E9
:10229400AC01002030B50C4687B0054600F076FD51
:1022A4000023E40A01A902A80134029305940495C9
:1022B40000F0B6FD00F07EFD0248FEF765FA07B0B7
:1022C40030BD00BF4C5B00080088704770B51446F1
:1022D40086B005460E4601A8174902F0FBFA01A88C
:1022E400FEF752FA00F052FD144A136943F0010359
:1022F400136194B104F1FF3E2EF0010E0235A6F1F4
:10230400020CB644A91BD368D807FCD401EB0C0318
:102314003CF8020FF4451880F5D1084AD368DB076E
:10232400FCD4136923F00103136100F043FD044856
:10233400FEF72AFA06B070BD5C5B0008002002407C
:102344006C5B000808B5FEF7A5F810B10222014B3A
:102354001A7008BD9051002038B5FEF77BFCFFF7DA
:1023640081F80A2823D00B2818D0062800D038BDBD
:102374002D4C2E4B227819789142F8D01A70FFF721
:1023840085FF03462A4A2B4908332B4802F0A2FA58
:1023940022782A492A4802F09DFA1AE0FEF798F8B2
:1023A4000020FFF765F80122264B1A7038BD00F0B3
:1023B400D1F9B0B1FFF76AFF03461D4A08331D493E
:1023C4001D4802F087FA204B1B78022B19D0032BEF
:1023D4001DD01B491848FFF765FC0422194B1A70DD
:1023E40038BDFFF753FF03461249114A0833124818
:1023F40002F070FA124B154A92E8030083E80300D6
:10240400E7E7134B0E4C0FCB07C42370E1E70C4CEA
:10241400104D0FCD0FC40FCD0FC42B681A0C24F828
:10242400023B2270D5E700BF8E510020935100205B
:10243400785B0008845B00085C510020CC5B0008DA
:1024440028510020905100208F510020905B0008FB
:10245400985B0008A85B000808B500F059F928B19A
:1024640000F064F90122054B1A7008BD0448FEF718
:102474008BF9BDE8084000F007B900BF9051002077
:10248400D05B000808B5FFF7E9FBFFF7FFFB112855
:1024940003D103220D4B1A7008BDFFF7F7FB122876
:1024A400FAD10020FEF70EF80020FFF7F5FB084AEA
:1024B40013780133DBB2032B137003D80122034BCF
:1024C4001A7008BDBDE8084000F0C4B8905100205F
:1024D4009251002008B5FFF741FC00BBFFF7BEFB9B
:1024E400FFF7D4FB11280ED012280BD10020FDF7E2
:1024F400E9FF0020FEF7BCFF0020FFF7CDFB01221F
:10250400114B1A7008BDFEF7ADFF0A280AD0FEF77A
:10251400A9FF0628F6D103220B4B1A7008BDFFF75A
:10252400F9FBDBE700F016F930B90848FEF72CF99F
:10253400BDE8084000F08EB80548FEF725F9BDE86F
:10254400084000F06DB800BF90510020EC5B00081B
:102554000C5C000810B51C491C4C0B7822789A427C
:102564000BD00A70042A11D8DFE802F012192027D0
:1025740003001748FEF708F92378042B06D8154AF8
:1025840002EBC3035B689847002010BD012010BD17
:102594001148FEF7F9F82378042BF7D8EFE70F4832
:1025A400FEF7F2F82378042BF0D8E8E70C48FEF79E
:1025B400EBF82378042BE9D8E1E70A48FEF7E4F8BE
:1025C4002378042BE2D8DAE79151002090510020BF
:1025D400905C0008C00100202C5C0008445C0008EA
:1025E400585C0008705C000808B500F033FAFDF789
:1025F400D5FFFEF735F8FEF7ADF8FDF76FFFFEF7F0
:1026040001F8FDF795FFFFF7F7FDFDF711FEFFF762
:10261400A1FFFFF7D7FDFFF70FFCF8E772B6FEE75F
:1026240030B50124094D83B0284621468DF8074072
:10263400FFF730FE224628460DF10701FFF746FE5C
:10264400034B5B68984703B030BD00BF00F003083C
:1026540000800008022310B5094C82B020460121F5
:102664008DF80730FFF716FE012220460DF1070111
:10267400FFF72CFE034B5B68984702B010BD00BF08
:1026840000F003080000020810B5184882B0FFF7F4
:102694001BFEC3B2022B05D0FF2B14D0012B12D08A
:1026A40002B010BD012111488DF80730FFF7F2FD8B
:1026B40001220E480DF10701FFF708FE0C4B5B6881
:1026C400984702B010BD0124084821468DF8074000
:1026D400FFF7E0FD224605480DF10701FFF7F6FD7F
:1026E400044B5B68984702B010BD00BF00F00308BC
:1026F40000000208008000080122014B1A70704794
:10270400945100200022014B1A707047945100200C
:1027140008B50548FFF7D8FDC0B2A0F10100B0FA32
:1027240080F0400908BD00BF00F80308002310B57D
:10273400074C82B020460221ADF80630FFF7AAFD0F
:10274400022220460DF10601FFF7C0FD02B010BDC4
:1027540000F80308014B1878704700BF945100201B
:102764000A4B82B09A6942F001029A619A6902F0B6
:1027740001020092009ADA6942F08052DA61DB6960
:1027840003F080530193019B02B070470010024094
:10279400002330B5144A016887B09142CDE9023371
:1027A400CDE9043301D007B030BDC0200322122587
:1027B4000E4C02A9A36943F00803A361A369029024
:1027C40003F0080300930A48009B0395059200F068
:1027D40089FBE36943F40013E361E36903F4001341
:1027E4000193019B07B030BD00540040001002402B
:1027F400000C01400E4B02689A4200D07047002240
:1028040003F50333D96900B541F00201D961DB69ED
:1028140083B003F0020301931D201146019B00F0D5
:1028240061F91D2003B05DF804EB00F099B900BF15
:102834000004004070B50024374A036888B093420E
:10284400CDE90444CDE9064404D0344A934232D05D
:1028540008B070BD03204FF480660225304B04A9F4
:10286400DA6942F40022DA61DA6902F400220092A1
:10287400009A9A6942F010029A619B69079003F0EA
:10288400100301932748019BCDE9046500F02AFB5E
:102894004FF4006304A923480493CDE9054400F0F0
:1028A40021FB22462146342000F01CF9342000F09C
:1028B40057F908B070BD03204FF480660225184B09
:1028C40004A9DA6942F48022DA61DA6902F4802226
:1028D4000292029A9A6942F008029A619B690790EF
:1028E40003F0080303931048039BCDE9046500F04B
:1028F400F9FA4FF4006304A90B480493CDE90544A5
:1029040000F0F0FA22462146272000F0EBF82720B9
:1029140000F026F908B070BD004C004000480040AB
:102924000010024000100140000C0140FEE700BF0F
:10293400FEE700BFFEE700BFFEE700BFFEE700BF03
:10294400704700BF704700BF704700BF00F094B8E5
:10295400014801F0E1BA00BFE0020020014801F0A3
:10296400F7BD00BF2C130020014801F0F1BD00BFEA
:10297400741300200D49034610B50D4A0D4C086828
:10298400121B20B10344934207D80B6010BD0A4CBC
:102994002046034493420C60F7D901F041FF0C2216
:1029A40003464FF0FF301A6010BD00BF985100205D
:1029B40000C0002000040000D0510020704700BF78
:1029C400FFF7FCFF0B480C490C4A002302E0D458E3
:1029D400C4500433C4188C42F9D3094A094C002367
:1029E40001E013600432A242FBD301F01FFFFFF7A2
:1029F400FBFD70470000002058020020145D000811
:102A040058020020D0510020FEE7000038B54FF4F2
:102A14007A730D4A054611780C4AB3FBF1F3126838
:102A2400B2FBF3F000F0AAF808B90F2D01D9012088
:102A340038BD0446024629464FF0FF3000F052F8F4
:102A4400034B20461D6038BDEC010020E801002046
:102A5400F0010020074A08B51368032043F010036F
:102A6400136000F02DF80F20FFF7D0FFFFF778FE7A
:102A7400002008BD00200240034A044B11681B7863
:102A84000B441360704700BF9C510020EC010020F0
:102A9400014B1868704700BF9C51002038B50446AC
:102AA400FFF7F6FF631C054602D0044B1B781C4459
:102AB400FFF7EEFF401BA042FAD338BDEC01002023
:102AC4004FF6FF0C06490302CA6803F4E06302EA06
:102AD4000C02134343F0BF6343F40033CB607047ED
:102AE40000ED00E01C4B00B5DB68C3F30223C3F127
:102AF400070EBEF1040F03F1040C28BF4FF0040EBF
:102B0400BCF1060F1BD94FF0FF3C033B0CFA03FC4E
:102B140022EA0C024FF0FF3C0CFA0EFC21EA0C01F5
:102B24009940002841EA02010CDB090100F16040F0
:102B3400C9B200F5614080F800135DF804FB00227F
:102B44001346E7E7054B00F00F000901C9B203443F
:102B540019765DF804FB00BF00ED00E0FCEC00E03A
:102B6400002807DB012300F01F01034A40098B40C2
:102B740042F82030704700BF00E100E00138B0F1B6
:102B8400807F0FD24FF0E0234FF0F00C002207219A
:102B940010B4054C586184F823C010469A6110BCE7
:102BA400196170470120704700ED00E090F8212082
:102BB4000346022A06D0042100220120996383F8E7
:102BC4002020704700B54FF0010E4FF0000C026852
:102BD400116821F00E011160116821F001011160EA
:102BE400D0E90F120EFA02F24A6083F821E083F86A
:102BF40020C060465DF804FB90F821200346022AB9
:102C040003D0042201209A637047026810B511684A
:102C1400454821F00E0111601168824221F0010142
:102C24001160424924D98A4258D014318A4261D071
:102C340014318A4260D014318A4256D014318A4207
:102C440063D014318A4266D082426AD001F567713A
:102C54008A4243D014318A424CD014318A424BD038
:102C640014318A4214BF4FF480324FF4805236E05C
:102C74008A4222D014318A423AD014318A423ED058
:102C840014318A422ED014318A423BD014318A4204
:102C94003ED0824242D001F567718A420DD0143190
:102CA4008A4225D014318A4229D014318A4214BF71
:102CB4004FF480324FF4805200E001221C494A60F4
:102CC400012100245A6B83F8211083F820401AB1A3
:102CD40018469047204610BD104610BD01221549E4
:102CE4004A60EDE74FF48052E8E74FF48052F6E78C
:102CF4001022E3E71022F2E74FF48072EFE74FF47B
:102D04008072DBE74FF48032D8E74FF48032E6E795
:102D14004FF48012D2E74FF48012E0E74FF0807254
:102D2400CCE74FF08072DAE78000024008000240EE
:102D34000000024000040240124BDB6813F0100351
:102D440005D010231049CA6942F00202CA610D4A33
:102D5400D268500706D50C4943F00403CA6942F00F
:102D64000102CA61074AD169C90708D50648C16981
:102D740041F00401C161D16921F00101D161014A2D
:102D8400D360704700200240A0510020064B186910
:102D940010F0800006D00549054A59605A60186948
:102DA400C0F3C010704700BF0020024023016745F4
:102DB400AB89EFCD034A0020136943F0800313610C
:102DC400704700BF0020024070B50446FFF760FE64
:102DD400124D064601E0621C17D1EB68DB07FAD4FA
:102DE400EB68980644BF2023EB600C4BDA68D106ED
:102DF40007D4DA69D20704D4D86810F0040000D1EB
:102E040070BDFFF799FF012070BD24B1FFF740FEAC
:102E1400801BA042E1D9032070BD00BF0020024006
:102E24002DE9F8432D4E337E012B54D00123337604
:102E340003688146022B31D04CF250308846FFF7AC
:102E4400C3FF074678BB4FF0FF33C8F80030D9E919
:102E5400025305EBC3239D4225D2214C07E005F51F
:102E64000065D9E9023203EBC223AB421CD9F761F6
:102E740023694CF2503043F00203236165612369F6
:102E840043F040032361FFF79FFF236923F002030C
:102E940023610028E3D0C8F8005005E04CF250301C
:102EA400FFF792FF20B1012000233376BDE8F883B9
:102EB4000B4CF06123694CF2503043F0040323615E
:102EC400236943F040032361FFF77EFF236923F066
:102ED40004032361E8E70220BDE8F883A051002041
:102EE400002002402DE9F04F0E6883B0002E00F060
:102EF400BE800022854F92461346854DDFF814822A
:102F040006E0013336FA03F402F1040200F0AF8064
:102F140001249C4034EA060E04EA060CF1D14E6802
:102F2400122E00F2A780122E1AD8DFE806F0B0C2E3
:102F3400BED719191919191919191919191919BAF9
:102F4400C500DFF8D4E1764500F0A1800EF5702EBF
:102F5400764500F09C80AEF5801E764500F09780A3
:102F6400BCF1FF0F9CBF864693464FF00F0684BF0B
:102F740000F1040EA2F1200BDEF800400AFA0BF96E
:102F840006FA0BFB24EA0B0444EA0904CEF80040D9
:102F94004C6814F0805F00F08280D7F818E003F0EA
:102FA40003094EF0010EC7F818E0D7F818E04FEA0D
:102FB40089090EF0010ECDF804E0DDF804E023F0F9
:102FC400030E0EF1804E0EF5803EDEF808B006FAD0
:102FD40009F62BEA0606DFF844B158451BD00BF579
:102FE400806B584573D0DFF838B1584568D0DFF8A6
:102FF40034B158457CD0DFF830B158457FD0DFF884
:103004002CB158450CBF4FF0050B4FF0060B0BFAD3
:1030140009F946EA0906CEF80860AE6814F4801F80
:1030240014BF46EA0C0626EA0C06AE60EE6814F4F9
:10303400001F14BF46EA0C0626EA0C06EE606E6812
:1030440014F4003F14BF46EA0C0626EA0C066E6030
:1030540014F4803F2C681FD044EA0C042C600E68E2
:10306400013336FA03F402F104027FF451AF03B0E2
:10307400BDE8F08F46450AD07FF663AFDFF8B0E0D5
:10308400764504D00EF5803E76457FF469AF8E68B0
:103094003EBB4FF0040A63E724EA0C042C600E687C
:1030A4002FE7CC6804F1040A5AE7CC6804F1080A53
:1030B40056E7D1F80CA053E7CC6804F10C0A4FE7AB
:1030C4004FF0020B0BFA09F946EA0906A3E74FF0A1
:1030D400010B0BFA09F946EA09069CE74FF0000ACE
:1030E4003EE7012E4FF0080A0CBF0461446137E744
:1030F4004FF0030B0BFA09F946EA09068BE74FF088
:10310400040B0BFA09F946EA090684E700100240A9
:1031140000040140000022100000121000080140C9
:10312400001001400014014000180140001C01403F
:10313400000031102DE9F843164681460D461F461E
:1031440002684FEA114801E07B1C13D1B8F1010F6A
:103154000BBF5369946925EA030C25EA040C1FFA92
:103164008CFCBCFA8CFC4FEA5C1CB445ECD000200F
:10317400BDE8F883FFF78CFC089BD9F80020C01A3F
:10318400B8421ED9B8F1010F0CBF5369936925EAFF
:1031940003039BB2B3FA83F35B09B342D6D1002293
:1031A4002023C9F8302089F83D3089F83E20D9F829
:1031B4004030012043F0200389F83C20C9F8403016
:1031C400D6E7002FDED0C1E72DE9F84380460E464E
:1031D40017469946046804E065696A0509D47B1CAE
:1031E40021D1606926EA000080B20028F4D1BDE84C
:1031F400F88300226FF4806520212368012043F4C2
:10320400007323606561C8F8302088F83D1088F8A1
:103214003E20D8F8403088F83C2043F00403C8F836
:103224004030BDE8F883FFF733FCA0EB0900B84257
:10323400D8F8004001D8002FD3D1636926EA0303EC
:103244009BB2002BCDD000222023C8F8302088F870
:103254003D3088F83E20D8F84030012043F0200368
:1032640088F83C20C8F84030C1E700BFF8B50368CF
:1032740017465A69540623D406460D460DE0FFF757
:1032840007FCC01BA842336800D81DB95C6914F060
:10329400400417D05A69520612D45A69D106EED5A1
:1032A40000226FF0100420215C61326386F83D1027
:1032B40086F83E20336C86F83C2001203364F8BD48
:1032C4000020F8BD2023346386F83D3086F83E4064
:1032D400336C86F83C4043F0200301203364F8BD8E
:1032E400F8B505460E461746046801E0731C19D16B
:1032F400636913F0800313D160694205F6D56FF456
:103304008061202261612B6385F83D2085F83E3081
:103314002A6C85F83C3042F0040201202A64F8BD8E
:103324000020F8BDFFF7B4FBC01BB0422C6801D8E5
:10333400002EDDD1636913F08003D9D120222B63E1
:1033440085F83D2085F83E3085F83C302B6C012013
:1033540013432B64F8BD00BF2DE9F04F05689B466D
:103364002B6885B043F480632B602B680746DDE946
:103374000E6A43F48073884691462B6001E0741C06
:1033840012D16C69E207FAD508F0FE032B613246CC
:103394005346384644495FFA88F8FFF715FF20B3CF
:1033A400012005B0BDE8F08FFFF772FBA0EB0A0027
:1033B40086423D6850D26B69D807E2D400222023AC
:1033C4003A6387F83D3087F83E203B6C87F83C2011
:1033D40043F020033B642B68D90551D54FF40073A7
:1033E40003203B6405B0BDE8F08F3B680390596946
:1033F400524603919B69314603933846039BFFF77A
:103404006FFF78BBBBF1010F3ED13B685FFA89F2D5
:103414001A61524631463846FFF762FF10BB024636
:1034240038683346016841F4807101604FF001113E
:103434003846CDF800A0FFF77DFEE8B93C6848F0B7
:10344400010121615346324638461749FFF7BCFE55
:10345400003818BF0120A4E7002E92D16B69D80769
:103464008FD4ABE73B6C042B9AD13A6801201368E4
:1034740043F40073136094E73B681B68DB05ADD429
:10348400032005B0BDE8F08F3B684FEA19221A61AA
:10349400314652463846FFF723FF0028E2D13A6806
:1034A4005FFA89F31361B4E702000100002800F019
:1034B400B98038B590F83D30044603F0FF02002B84
:1034C40000F098802422236884F83D201A6822F0B2
:1034D40001021A601A6842F400421A601A6822F45F
:1034E40000421A6000F0BCFC63684F498B424FD81D
:1034F4004E4A90427CD94E4D5A00A5FB0035431EDE
:10350400B3FBF2F340F6FC7E2268A90C506801F18B
:10351400010C20F03F0040EA95405060116A0133ED
:1035240021F03F0141EA0C011162D16913EA0E0F47
:1035340021F44F4121F0FF0161D104230B43D361F6
:103544001168D4E9073021F0C00103430B43136031
:103554009168D4E9030321F40341034321F0FF01FB
:103564000B439360D068D4E9053120F0FF000B438E
:103574000343D3601368002143F001031360202345
:10358400216484F83D30216384F83E10084638BD38
:10359400284A90422CD9264DA5FB002C4FF4967254
:1035A4004FEA9C4102FB01F1234D2268A5FB015126
:1035B4005568890925F03F0545EA9C455560156A1B
:1035C400013125F03F0529431162D169A56821F431
:1035D4004F4121F0FF01ADB9013803EB4303B0FBC8
:1035E400F3F30133C3F30B03D3B143F40043A5E76F
:1035F400012038BD80F83C20FFF7CAF862E7C3F326
:103604000B039BE703EB8303013803EB8303B0FB5A
:10361400F3F30133C3F30B0313B143F440438DE7D6
:1036240001238BE701207047A08601007F841E00E0
:1036340083DE1B43FF083D00D34D62102DE9F047A4
:10364400002488B00394044699460E469046BDF87B
:1036540044A0129FFFF71CFA94F83D30202B04D0AD
:103664000226304608B0BDE8F087054600901923CD
:10367400012220469949FFF75DFD0028F0D194F816
:103684003C30012BECD00123206884F83C300368E3
:10369400D90739D542464FF0400E4FF0000C4FF099
:1036A4002208314606684B4626F4006606601098E8
:1036B4006062CDE9007584F83D8084F83EE0C4F88A
:1036C40040C0A4F82AA0608D20858548E062204689
:1036D400FFF742FE0646002840F08D80238DC3B9D3
:1036E400236804905A6904929A690492049A1A68A5
:1036F40042F400721A600023202284F83C3084F8DB
:103704003D2084F83E30ACE7036843F001030360D6
:10371400C0E7012B226800F0CF80022B70D0116823
:1037240041F4806111600790516907919269079291
:10373400079A032BDFF8AC81DFF8ACA1DFF8AC917A
:1037440034D8012B50D0022B4FF000023B464146A7
:103754002046009569D1FFF7EDFC00284BD172B6E5
:103764002368616A1A6842F400721A601B690B705C
:10377400638D013B9BB26385636A01336362238D6E
:10378400013B238562B623681A69636A1A70628DE5
:10379400238D013A92B26285626A013B9BB2013287
:1037A40023856262002BA6D0032BCAD92A46394648
:1037B4002046FFF75BFDF0B923681A69636A1A7043
:1037C400638D2168013B9BB26385238D626A4869DE
:1037D400013B9BB202F1010C40072385C4F824C0CD
:1037E400E0D50B695370D2E72A4639462046FFF7E5
:1037F4003DFD0028C7D00126304608B0BDE8F0875B
:10380400136843F40063136072B6236806905A6920
:1038140006929A690692069A1A6822F480621A60DD
:1038240062B6238D002B84D165E7FFF783FC002863
:10383400E1D12268136823F48063136072B62368AD
:103844001A69636A1A70DAF80030616ADB08A9FB46
:103854000323628D1B0A03EB8303013AC3EBC30307
:1038640092B262850393238D013B23854B1C6362D3
:1038740003E023685A69520717D4039B013B03935F
:10388400039B002BF5D12022236384F83D2084F888
:103894003E30226C42F02002226462B60126304699
:1038A40084F83C3008B0BDE8F0871A6842F400722E
:1038B4001A601B694B705BE7136823F48063136021
:1038C40072B6236805905A6905929A690592059A19
:1038D4001A6842F400721A6062B6A2E7020010008D
:1038E4000000FFFF04000100E801002089B5F8147E
:1038F400002800F0B6812DE9F04103680446DD0795
:1039040082B035D59A494A6802F00C02042A00F0C4
:10391400EF804A6802F00C02082A00F0E580636830
:10392400B3F5803F10D0002B00F00C81B3F5A02F2D
:1039340000F082818E4B1A6822F480321A601A6871
:1039440022F480221A6004E0894A136843F4803325
:103954001360FFF79DF8864E054605E0FFF798F8DB
:10396400401B642800F2EA8033689A03F6D5236882
:103974009F0728D57E4A516811F00C0F00F08D8006
:10398400516801F00C01082900F083802369002BA1
:1039940000F018810122774B754E1A60FFF778F812
:1039A400054605E0FFF774F8401B022800F2C680C4
:1039B40033689807F6D53368626923F0F80343EA5D
:1039C400C203336023681A071FD45D0742D5684BCE
:1039D400DA69D0007DD50025674E3368D90540F1FA
:1039E4009D80E368012B00F0FE80002B00F0CA806C
:1039F400052B5F4B1A6A00F02C8122F001021A6237
:103A04001A6A22F004021A62F2E0A369002B4FD072
:103A14000122584B564EC3F88024FFF739F8054667
:103A240005E0FFF735F8401B022800F28780736A2F
:103A34009B07F6D5514B524A1B68A2FB03235B0A32
:103A4400019300BF019B5A1E0192002BF9D12368F8
:103A54005D07BCD4E069C0B1454D6B6803F00C034D
:103A6400082B00F0D8800022424B02281A6600F08E
:103A7400FA80FFF70DF8044604E0FFF709F8001B8D
:103A840002285BD82B689B01F7D4002002B0BDE864
:103A9400F0815268D6033FF579AF354A126895072D
:103AA40030D52269012A2DD0012002B0BDE8F08171
:103AB400304A2F4EC2F88034FEF7EAFF054604E090
:103AC400FEF7E6FF401B022838D8736A9F07F7D435
:103AD400BDE7DA69012542F08052DA61DB6903F05F
:103AE40080530093009B77E74A68D0037FF517AFB4
:103AF4001F4A126891037FF53BAF6268002A7FF486
:103B040037AFD1E71A4960690A6822F0F80242EA3D
:103B1400C0020A601A077FF558AF76E7336843F4AA
:103B240080733360FEF7B4FF07463368DA053FF568
:103B340058AFFEF7ADFFC01B6428F6D9032002B0CE
:103B4400BDE8F0810A4D2B6823F480332B602B6889
:103B540023F480232B60FEF79BFF064604E0FEF768
:103B640097FF801B6428E9D82B689B03F7D4FEE6F3
:103B7400001002400000424200700040E8010020B2
:103B8400D34D6210504E41F28838336A23F001035A
:103B94003362336A23F004033362FEF779FF074686
:103BA40004E0FEF775FFC01B4045C7D8336A980789
:103BB400F7D4002D3FF44EAF434AD36923F080532A
:103BC400D36147E7414A404E1360FEF761FF054663
:103BD40004E0FEF75DFF401B0228AFD83368990765
:103BE400F7D42368EFE6384A136A43F001031362FB
:103BF400FEF74EFF41F288380646334F04E0FEF7E5
:103C040047FF801B404599D83B6A9B07F7D5002D99
:103C14003FF420AFD0E701283FF438AF6B68226A45
:103C240003F4803191427FF43FAF606A03F4701370
:103C3400181A18BF012029E703F18043A3F53C3388
:103C44001A6842F480221A601A6842F480321A60B8
:103C54007FE642F004021A621A6A42F001021A6212
:103C6400C6E701207047FEF713FF064605E0FEF79E
:103C74000FFF801B02283FF661AF2B689901F6D431
:103C8400236AB3F5803F05D16A68A16822F4003243
:103C94000A436A6001200C4D616A6A680B4322F48E
:103CA40074120A4913436B600866FEF7F1FE04467A
:103CB40005E0FEF7EDFE001B02283FF63FAF2B6840
:103CC4009A01F6D5E1E600BF00100240000042422E
:103CD4000E4A536803F00C01082901D00C487047C0
:103CE4000C48C3F38341DB03405C0AD5084953689D
:103CF40001FB00F0084AC3F34043D35CB0FBF3F08C
:103D04007047064B03FB00F0704700BF00100240F1
:103D140000127A00C45C0008D45C000800093D006D
:103D2400002800F08C80494A2DE9F04113680446CC
:103D340003F007038B420D460CD2136823F00703EC
:103D44000B431360136803F007038B4202D0012076
:103D5400BDE8F0812368980714D5590704D53C4978
:103D64004A6842F4E0624A601A0704D538494A684E
:103D740042F460524A603649A0684A6822F0F00270
:103D840002434A60DF0720D56268314B012A1B6871
:103D940057D0022A50D09907D9D52D4E41F28838F0
:103DA400736823F0030313437360FEF771FE074641
:103DB40004E0FEF76DFEC01B404545D87368626899
:103DC40003F00C03B3EB820FF3D1204A136803F022
:103DD4000703AB4209D9136823F007032B4313608D
:103DE400136803F00703AB42B1D123685A0706D521
:103DF4001749E0684A6822F4E06202434A601B07FC
:103E040007D5134A2169536823F4605343EAC10375
:103E14005360FFF75DFF03460D4A0E4952680E4892
:103E2400C2F30312895C0D4ACB4000681360FEF7AD
:103E3400EDFD0020BDE8F0819801AED487E70120B4
:103E440070479E03A9D482E7032081E70020024043
:103E540000100240AC5C0008F0010020E8010020E2
:103E6400044B054A5B680549C3F30223CB5C106825
:103E7400D840704700100240E8010020BC5C0008F4
:103E8400044B054A5B680549C3F3C223CB5C106845
:103E9400D840704700100240E8010020BC5C0008D4
:103EA40090F83D30012B27D10222036880F83D2091
:103EB400DA68134942F001028B42DA6011D0114AE8
:103EC40093420ED0B3F1804F0BD0A2F598329342B7
:103ED40007D002F58062934203D002F580629342D8
:103EE40004D19A6802F00702062A07D01A68002053
:103EF40042F001021A6070470120704700207047A9
:103F0400002C014000340140704700BF704700BFDF
:103F1400704700BF704700BF036810B51A690446B4
:103F2400910702D5DA6892075FD41A69500702D55F
:103F3400DA68510746D41A69120702D5DA681007FD
:103F44002ED41A69D20602D5DA68D00618D41A69B2
:103F5400D10702D5DA68D2075DD41A69100602D5F2
:103F6400DA6811065FD41A69520602D5DA68500677
:103F740061D41A69910602D5DA68920643D410BD59
:103F84006FF01001082219612277DB69204613F4CF
:103F9400407F64D0FFF7BAFF002223682277D6E778
:103FA4006FF00801042219612277DB692046990722
:103FB40052D1FFF7A9FF2046FFF7AAFF002223688A
:103FC4002277BEE76FF004010222196122779B6910
:103FD400204613F4407F3CD1FFF796FF2046FFF7BD
:103FE40097FF002223682277A5E76FF002010122E0
:103FF400196102779B699B0725D0FFF787FF002291
:104004002368227791E76FF020022046BDE8104034
:104014001A6100F0ADB86FF0010220461A61FCF796
:104024001DFB236899E76FF0800220461A6100F0B7
:10403400A1F8236897E76FF0400220461A61FFF762
:1040440069FF236895E7FFF75FFF2046FFF760FFEE
:10405400D5E7FFF75BFFC4E7FFF758FFAEE7FFF7CD
:1040640053FF2046FFF754FF96E700BF284A30B4B9
:10407400904203681FD002F5006290421BD0B0F159
:10408400804F2FD0A2F5983290422BD002F5806257
:10409400904227D002F58062904223D04D6923F0EC
:1040A40080032B438C680A6803600123C462826224
:1040B40030BC436170474C6823F07003CA682343E3
:1040C40023F4407313434A6923F0800313430360CA
:1040D4008B6830BCC3620B6883620B690363012382
:1040E400436170474A6823F07003CC68134323F498
:1040F40040734A69234323F0800313438C680A689E
:1041040003600123C462826230BC4361704700BF14
:10411400002C014050B310B590F83D30044603F034
:10412400FF02F3B10223214684F83D3051F8040B19
:10413400FFF79CFF012384F8463084F83E3084F86E
:104144003F3084F8403084F8413084F8423084F8B9
:10415400433084F8443084F8453084F83D300020FE
:1041640010BD80F83C20FEF745FBDBE701207047DB
:10417400704700BF704700BF026802F10C0353E8A8
:10418400003F23F4907302F10C0C4CE80031002939
:10419400F3D102F1140353E8003F23F0010302F1C9
:1041A400140C4CE800310029F3D1036B012B05D02A
:1041B4002022002380F842200363704702F10C039D
:1041C40053E8003F23F0100302F10C0C4CE80031DB
:1041D4000029F3D1ECE700BF38B504460368C16891
:1041E4001A691C4D22F440520A431A61826800691C
:1041F400D9680243606921F4B05121F00C010243F3
:104204000A43DA605A69A16922F440720A43AB4254
:104214005A611BD0FFF724FE0346626803EB830355
:10422400920003EB8303B3FBF2F364250A4920688D
:10423400A1FB0342520905FB12331B013233A1FBDC
:104244000313120102EB5313836038BDFFF718FE0A
:104254000346E2E7003801401F85EB512DE9F8439E
:1042640080460F4691461E46D8F8005001E0731C64
:1042740006D12C6837EA0403F9D10020BDE8F8839D
:104284003EB1FEF705FCA0EB09008642ECD2D8F85B
:10429400005005F10C0353E8003F23F4D07305F1FB
:1042A4000C0141E80032002AF3D105F1140353E86C
:1042B400003F23F0010305F1140141E80032002A14
:1042C400F3D12023032088F8413088F8402088F86F
:1042D4004230D3E770B310B590F84130044603F090
:1042E400FF0213B32423226884F84130D3682046A4
:1042F40023F40053D360FFF76FFF00224FF0200C2C
:1043040023681046196921F490411961596921F013
:104314002A015961D96841F40051D960626484F872
:1043240041C084F842C0626310BD80F84020FEF7AB
:1043340081FAD7E7012070472DE9F8431E4690F82B
:104344004130202B3AD10D4609B1174612B901204C
:10435400BDE8F88321234FF000090446C0F84490D7
:1043640080F84130FEF794FBA3688046B3F5805F84
:10437400A784E78425D0E38C9BB27BB92AE015F8A7
:10438400012B23685A60B4F826C00CF1FF3C1FFAD5
:104394008CFCA4F826C0E18C89B2D9B133464246DC
:1043A40080212046FFF75AFF88B9002DE7D139F85C
:1043B400023B2268C3F308035360E4E70220BDE82C
:1043C400F8832369002BD6D1A9461D46D3E70320E1
:1043D400BDE8F8833346424640212046FFF73EFFBE
:1043E4000028F4D1202384F84130B1E790F841301B
:1043F400202B13D101B10AB90120704700234FF0DB
:10440400210C01620168C284436480F841C0828443
:10441400CA68184642F08002CA607047022070479A
:1044240090F84230202B03D101B11AB90120704712
:104434000220704700234FF0220C8162016903635C
:104444008285C2854364036880F842C019B1DA6882
:1044540042F48072DA605A69002042F001025A6123
:10446400DA6842F02002DA60704700BF704700BF8C
:1044740008B50023406AC385C384FFF7F7FF08BD6E
:10448400704700BF8368B3F5805F45D0826A002B14
:104494003AD003685B6803F07F031370836A0133C7
:1044A4008362C38D013B9BB2C385002B33D14FF094
:1044B400200C026800B5D16883B021F02001D160DE
:1044C400D16821F48071D160516921F001015161F9
:1044D40080F842C04363016B012928D1036302F1D0
:1044E4000C0353E8003F23F0100302F10C0C4CE8DA
:1044F40000310029F3D11368DB0622D4818DFFF744
:10450400BFFF03B05DF804FB0369002BC1D103684E
:104514005B681370C2E7704703696BB90268836A0A
:104524005268C2F3080223F8022B8362B9E7FCF74E
:104534004FF903B05DF804FB0368826A5B6813708B
:10454400ACE701911368019353680193019BD5E78C
:1045540070B5036804461A681D4612F00F0FD96837
:1045640082B05E696FD1930602D58E0600F1D580C4
:10457400236B012B0BD0160602D5080600F1A3808D
:10458400520602D54B0600F1BD8002B070BDD606BE
:10459400F1D5C806EFD5002301932B6801936B680E
:1045A4000193019B6B695B0640F1E680E06B036855
:1045B4005B689BB2002BE8D0A28D9A42E5D9E385D3
:1045C4008369202B36D005F10C0353E8003F23F414
:1045D400807305F10C0141E80032002AF3D105F1A2
:1045E400140353E8003F23F0010305F1140141E8EB
:1045F4000032002AF3D105F1140353E8003F23F0FD
:10460400400305F1140141E80032002AF3D12023CC
:1046140084F84230226305F10C0353E8003F23F091
:10462400100305F10C0141E80032002AF3D1FEF732
:10463400BDFAA28D02236363E38D2046D21A91B2A0
:10464400FFF71EFFA1E706F0010601F49070304366
:104654008ED0D00705D5CD0503D5606C40F00100A0
:104664006064500726D52EB1606C950740F00200B7
:10467400606423D4150707D501F02000304303D02C
:10468400606C40F008006064606C00283FF47DAF0B
:10469400900602D58A0600F1AA805B69656C03F076
:1046A400400305F008051D43204640D1FFF7DEFE18
:1046B40065646AE79007DDD5002EDBD0606C40F0BE
:1046C40004006064D6E794F84130212B7FF45DAF99
:1046D400A368B3F5805F00F09480236A5A1C2262B9
:1046E4001B786B60E38C013B9BB2E384002B7FF46B
:1046F4004CAFEB6823F08003EB60EB6843F04003BE
:10470400EB6042E72022EB68204623F04003EB6095
:1047140084F84120FCF77CF837E790F84230222BEC
:104724007FF433AF02B0BDE87040FFF7ABBEFFF7D4
:1047340023FD25686B695B061AD505F1140353E85C
:10474400003F23F0400305F1140141E80032002A40
:10475400F3D1E06B60B1314B4363FEF74DFA0028AF
:104764003FF413AFE06B436B02B0BDE870401847F1
:104774002046FFF77BFE08E7E28DE38D92B29BB201
:10478400002B3FF402AFA18D8A1A91B200293FF4A5
:10479400FCAE05F10C0353E8003F23F4907305F1DC
:1047A4000C0040E80032002AF3D105F1140353E869
:1047B400003F23F0010305F1140040E80032002A11
:1047C400F3D1202384F84230226305F10C0353E82B
:1047D400003F23F0100305F10C0040E80032002AEA
:1047E400F3D1022320466363FFF74AFECDE694F833
:1047F4004220222A7FF451AF2046FFF743FE23686C
:104804004BE72369002B7FF468AF236A33F8022B4C
:10481400C2F308026A60236264E700BF75440008BB
:10482400014B1868704700BFF401002070B50026E2
:104834000C4D0D4C641BA410A64209D100F0A4FC3D
:1048440000260A4D0A4C641BA410A64205D170BD73
:1048540055F8043B98470136EEE755F8043B984772
:104864000136F2E70C5D00080C5D00080C5D0008E1
:10487400105D00080A44914200F1FF3300D17047F3
:1048840010B511F8014B914203F8014FF9D110BD55
:10489400884210B501EB020402D98442234607D8AA
:1048A400431EA14208D011F8012B03F8012FF8E7A9
:1048B400014602448A4200D110BD13F8014D02F8AA
:1048C400014DF7E703460244934200D1704703F8D1
:1048D400011BF9E70EB46FF0004100B59CB01DABAD
:1048E40002900690079104910848094953F8042B53
:1048F4000591006802A9019300F070F80022029B60
:104904001A701CB05DF804EB03B07047F40100208A
:104914000802FFFF034611F8012B03F8012B002ABC
:10492400F9D170472DE9F0478E6882469E420C46C5
:1049340090461F4638D88A8912F4906F32D0256881
:1049440009690133A5EB010965694B4405EB45058C
:1049540005EBD5756D109D4238BF1D46530531D505
:10496400294600F047FB064650B90C234FF0FF30B0
:10497400CAF80030A38943F04003A381BDE8F0875F
:104984004A462169FFF776FFA38923F4906343F035
:104994008003A38126614E4426603E466561A5EBF3
:1049A4000905A560BE4200D93E463246414620680C
:1049B400FFF76EFFA36800209B1BA36023683344AA
:1049C4002360DBE72A4600F089FB06460028E1D194
:1049D4005046216900F0A6FAC7E700002DE9F04F20
:1049E40098468B8907461B060D4614469DB00ED586
:1049F4000B6963B9402100F0FDFA2860286120B9F1
:104A04000C233B604FF0FF30D1E040236B61002367
:104A1400099320238DF8293030234FF00109CDF874
:104A24000C80DFF8A4818DF82A3023469A4613F8C7
:104A3400012B0AB1252AF9D1BAEB040B0BD05B4642
:104A4400224629463846FFF76DFF013000F0AA8060
:104A5400099A5A4409929AF80030002B00F0A28077
:104A640000234FF0FF32CDE905230AF1010A049334
:104A740007938DF853301A935446052214F8011BFA
:104A8400514800F041FA049AD8B9D00644BF202313
:104A94008DF85330110744BF2B238DF853309AF807
:104AA40000302A2B15D0544600204FF00A0C079AE8
:104AB400214611F8013B303B092B4ED9B0B1079286
:104AC40014E0A0EB080309FA03F31343A24604938A
:104AD400D2E7039B191D1B680391002BBBBF5B42EC
:104AE40042F0020207930793B8BF049223782E2B57
:104AF4000CD163782A2B35D1039B02341A1D1B6811
:104B04000392002BB8BF4FF0FF330593DFF8BCA02E
:104B140003225046217800F0F7F940B14023A0EB7E
:104B24000A0003FA00F0049B01340343049314F8CD
:104B3400011B062226488DF8281000F0E5F900280C
:104B440038D0244B1BBB039B073323F007030833E4
:104B54000393099B3344099367E70C4601200CFB3C
:104B64000232A5E700234FF00A0C194601340593DD
:104B7400204610F8012B303A092A03D9002BC5D05E
:104B84000591C3E7044601230CFB0121F0E703ABC5
:104B940000932A463846104B04A9AFF30080421C08
:104BA4000646D6D1AB895B063FF52CAF09981DB0FC
:104BB400BDE8F08F03AB00932A463846064B04A9A0
:104BC40000F07CF8EBE700BFD65C0008DC5C000872
:104BD400E05C000800000000294900082DE9F047C6
:104BE400164699468A680B6907469342B8BF13462E
:104BF400336091F843200C46DDF820800AB101337C
:104C040033602368990642BF3368023333602568F2
:104C140015F0060506D104F1190AE36832689B1AF7
:104C2400AB4228DC94F84320131E226818BF0123EA
:104C340092062DD44946384604F14302C047013058
:104C440020D02368E56803F00603042B18BF002571
:104C540032684FF00006A36808BFAD1A226908BF86
:104C640025EAE5759342C4BF9B1AED181A34B54280
:104C74001AD1002008E00123524649463846C0476D
:104C8400013003D14FF0FF30BDE8F0870135C4E7B0
:104C94003020E11881F843005A1C94F8451022444E
:104CA400023382F84310C5E70123224649463846B9
:104CB400C0470130E6D00136D9E700002DE9FF47AF
:104CC4000F7E9146782F80460C469A460C9D01F142
:104CD400430207D8622F0AD8002F00F0D980582F3A
:104CE40000F0A48004F1420584F842703AE0A7F190
:104CF4006303152BF6D801A151F823F0594D000890
:104D04006D4D0008E94C0008E94C0008E94C000826
:104D1400E94C00086D4D0008E94C0008E94C000816
:104D2400E94C0008E94C00087B4E00089D4D000842
:104D34005D4E0008E94C0008E94C00089D4E00084F
:104D4400E94C00089D4D0008E94C0008E94C0008B6
:104D5400654E00082B681A1D1B682A6004F1420581
:104D640084F842300123A4E020682968060601F192
:104D740004030AD50E682B60002E03DA2D23764235
:104D840084F843300A235E4819E00E6810F0400F9F
:104D94002B6018BF36B2EFE72B682068191D296015
:104DA400010601D51E6802E04606FBD51E886F2F5A
:104DB4000CBF08230A235248002184F84310656875
:104DC400002DA8BF2168A560A4BF21F004012160C3
:104DD4000EB9002D4DD01546B6FBF3F103FB116758
:104DE400C75D05F8017D3746BB420E46F4D9082B52
:104DF4000BD12368DE0708D5236961689942DEBFB9
:104E0400302305F8013C05F1FF35521B22614B4666
:104E140021464046CDF800A003AAFFF7DFFE01308B
:104E24004CD14FF0FF3004B0BDE8F087344881F82E
:104E340045702968236851F8046B29601D0614D550
:104E4400DF0744BF43F0200323601EB9236823F027
:104E5400200323601023AFE7236843F0200323607B
:104E64007823284884F84530E3E7590648BFB6B2AA
:104E7400E6E71546BBE72B682668181D61692860BC
:104E840035061B6801D5196002E07006FBD5198050
:104E9400002315462361BAE72B6800211A1D2A60F6
:104EA4001D686268284600F02FF808B1401B606056
:104EB40063682361002384F84330A8E72A464946FF
:104EC40040462369D0470130ABD023689B0713D4F5
:104ED400E068039B9842B8BF1846A4E70123324612
:104EE40049464046D04701309BD00135E3680399D9
:104EF4005B1AAB42F2DCEBE7002504F11906F5E797
:104F0400E75C0008F85C0008034610B5C9B2024427
:104F14009342184601D1002003E0047801338C4207
:104F2400F6D110BD38B50546002940D051F8043CEF
:104F34000C1F002BB8BFE41800F010F91C4A1368CA
:104F440033B9636014602846BDE8384000F00CB9FA
:104F5400A34208D9206821188B4201BF19685B68F5
:104F640009182160EDE71A465B680BB1A342FAD930
:104F740011685018A0420BD1206801445018834294
:104F84001160E0D118685B68014411605360DAE78E
:104F940002D90C232B60D6E7206821188B4201BF6D
:104FA40019685B680918216063605460CBE738BDF9
:104FB400C051002070B50E4E0C463168054611B93B
:104FC40000F0BCF830602146284600F0B7F8431CD6
:104FD4000AD0C41C24F00304A04207D0211A284696
:104FE40000F0ACF8013001D14FF0FF34204670BD21
:104FF400C45100202DE9F041CD1C25F003050835EE
:105004000C2D38BF0C25002D074601DBA94205D91C
:105014000C2300263B603046BDE8F0812E4E00F0A4
:105024009DF833681C4634BB29463846FFF7C2FF57
:10503400431C04464DD134682646002E40D12368D3
:105044003146384604EB030800F078F880453AD13D
:10505400216803356D1A25F0030508350C2D38BF7A
:105064000C2538462946FFF7A5FF01302BD02368CD
:105074002B4423600EE02268521B1ED40B2A16D93F
:105084006119A342256018BF5960636808BF316085
:1050940062514B60384604F10B0600F065F826F0C7
:1050A4000706231DF21AB6D09B1BA350B3E7626810
:1050B400A3420CBF32605A60ECE723466468B2E74F
:1050C40034467668B9E70C2338463B6000F04CF868
:1050D400A1E72560DEE700BFC05100202DE9F041C3
:1050E400804614460E4621B91146BDE8F041FFF74B
:1050F40081BF2AB9FFF716FF25462846BDE8F0818F
:1051040000F038F88442074602D8B4EB500F12D8A6
:1051140021464046FFF76EFF05460028EDD0BC420D
:105124002246314628BF3A46FFF7A4FB31464046A3
:10513400FFF7F8FEE1E73546DFE7000038B5002366
:10514400054D044608462B60FDF714FC431C02D1B0
:105154002B6803B1236038BDC8510020014800F01A
:1051640011B800BFCC510020014800F00CB800BFBA
:10517400CC51002051F8043C181F002BBCBF0B5825
:10518400C018704770477047F8B500BFF8BC08BC3A
:105194009E467047F8B500BFF8BC08BC9E467047F1
:1051A40041542B53494D45493F0D0A0041542B436B
:1051B40052455345540D0A000D0A53494D373630B4
:1051C400302052455345540D0A0000000D0A53493E
:1051D4004D37363030205741495420464F522052E3
:1051E4004553455420524553504F4E450D0A000037
:1051F4000D0A53494D373630302053544152542010
:1052040055500D0A000000000D0A53494D37363041
:1052140030205741495420464F5220535441525450
:1052240020555020524553504F4E450D0A00000062
:105234000D0A53494D373630302053455454494EA6
:10524400470D0A000D0A53494D3736303020574177
:10525400495420464F522053455454494E472052F6
:105264004553504F4E450D0A000000000D0A5349A6
:105274004D373630302047455420494D45490D0AB5
:10528400000000000D0A53494D3736303020574195
:10529400495420464F522047455420494D45492002
:1052A400524553504F4E450D0A0000000D0A534914
:1052B4004D37363030204D41582053544154450D1C
:1052C4000A00000041540D0A000000004154453119
:1052D4000D0A000041542B434744434F4E543D3183
:1052E4002C224950222C22762D696E7465726E65CB
:1052F40074220D0A0000000041542B4347534F43CE
:105304004B434F4E543D312C224950222C22636D85
:105314006574220D0A00000041542B43534F434B44
:10532400534554504E3D310D0A00000041542B4367
:1053340049504D4F44453D300D0A000041542B4E19
:1053440045544F50454E0D0A0000000041542B4374
:105354005553443D310D0A0041542B435343533DAF
:105364002247534D220D0A0041542B4854545049AE
:105374004E49540D0A00000041542B4854545050D7
:105384004152413D2255524C222C22687474703A89
:105394002F2F6F74612E6368697066632E636F6D5F
:1053A4002F636172645F76656E646F725F666972A3
:1053B4006D776172652F76657273696F6E2E74787E
:1053C40074220D0A0000000041542B4854545050DC
:1053D4004152413D2255524C222C22687474703A39
:1053E4002F2F6F74612E6368697066632E636F6D0F
:1053F4002F636172645F76656E646F725F66697253
:105404006D776172652F25732F6669726D7761728E
:10541400652E686578220D0A0000000041542B486F
:105424005454505445524D0D0A00000041542B4829
:10543400545450414354494F4E3D300D0A0000002E
:10544400436F6D706C657465203130302500000049
:10545400436F6D706C65746520256C6425000000D5
:1054640041542B48545450524541443D302C2564FA
:105474000D0A0000687474705F726573706F6E73E8
:10548400655F72656D61696E3A20256C640D0A0072
:105494006669726D776172655F696E6465783A20DA
:1054A400256C640D0A0000002B48545450524541A9
:1054B400443A20000D0A4854545020494E49540D92
:1054C4000A0000000D0A4854545020574149542002
:1054D400464F5220494E49540D0A00000D0A4854C3
:1054E400545020504152410D0A0000000D0A485406
:1054F4005450205741495420464F52205041524164
:105504000D0A00000D0A4854545020414354494F99
:105514004E0D0A000D0A4854545020574149542056
:10552400464F5220414354494F4E0D0A000000009B
:105534000D0A4854545020524541440D0A000000BD
:105544000D0A48545450205741495420464F522084
:10555400524541440D0A00000D0A48545450205449
:1055640045524D0D0A0000000D0A4854545020576E
:1055740041495420464F52205445524D0D0A0000D3
:105584000D0A4854545020444F4E450D0A00000063
:1055940047657420696E746F204854545020444FFA
:1055A4004E4500000D0A2B48545450524541443A8C
:1055B400203000000D0A2B48545450524541443ABF
:1055C400300000000D0A2B000D0A3A000D0A3220AB
:1055D4006279746520746F74616C203A25780D0AC1
:1055E400000000000D0A322062797465206C6F7728
:1055F400203A25780D0A00000D0A4A756D70205472
:105604006F2043757272656E74204669726D77619E
:1056140072650D0A000000000D0A436865636B7330
:10562400756D204572726F720D0A00000D0A4A757D
:105634006D7020546F20466163746F7279204669DF
:10564400726D776172650D0A000000000D0A435502
:105654005252454E54204649524D574152452041DD
:105664004444524553532057524F4E470D0A0000AD
:105674000D0A25640D0A0000222573220000000093
:1056840041542B434D51545453544152540D0A0028
:1056940041542B434D515454414343513D25642CB3
:1056A40025732C25640D0A0041542B434D51545449
:1056B400434F4E4E4543543D25642C25732C25649D
:1056C4002C25642C25732C25730D0A0041542B437F
:1056D4004D5154545055423D25642C25642C256469
:1056E4002C25642C25640D0A0000000041542B4332
:1056F4004D515454544F5049433D25642C25640D59
:105704000A00000041542B434D5154545041594C0C
:105714004F41443D25642C25640D0A004D515454D9
:1057240020436F6E666967206661696C65643A2020
:1057340053544152540000004D51545420436F6E51
:10574400666967206661696C65643A204143435128
:10575400554952455F434C49454E54004D515454AC
:1057640020436F6E666967206661696C65643A20E0
:10577400434F4E4E4543540054494D45204F5554D4
:105784000D0A00004D51545420436F6E6669672022
:105794006661696C65643A20544F504943000000C7
:1057A4004D51545420436F6E666967206661696C7D
:1057B40065643A20494E5055545F544F5049430054
:1057C4004D51545420436F6E666967206661696C5D
:1057D40065643A205041594C4F4144004D51545452
:1057E40020436F6E666967206661696C65643A2060
:1057F400494E5F5041594C4F414400004D5154545F
:1058040020436F6E666967206661696C65643A203F
:105814005055424C495348000D0A4D5154542049A7
:105824004E49540D0A0000000D0A4D5154542053A2
:10583400544152540D0A00000D0A4D51545420573E
:1058440041495420464F522053544152540D0A00AA
:105854000D0A4D515454204143435155495245205A
:10586400434C49454E540D0A000000000D0A4D51A9
:105874005454205741495420464F522041434351E8
:105884005549524520434C49454E540D0A000000E9
:105894000D0A4D51545420434F4E4E4543540D0A66
:1058A400000000000D0A4D51545420574149542022
:1058B400464F5220434F4E4E4543540D0A000000BC
:1058C4000D0A4D51545420544F5049430D0A0000C1
:1058D4000D0A4D515454205741495420464F5220EB
:1058E400544F5049430D0A000D0A4D515454204958
:1058F4004E50555420544F5049430D0A00000000A7
:105904000D0A4D515454205741495420464F5220BA
:10591400494E50555420544F5049430D0A0000003D
:105924000D0A4D515454205041594C4F41440D0AD5
:10593400000000000D0A4D51545420574149542091
:10594400464F52205041594C4F41440D0A0000002B
:105954000D0A4D51545420494E505554205041592C
:105964004C4F41440D0A00000D0A4D515454205728
:1059740041495420464F5220494E505554205041DD
:10598400594C4F41440D0A000D0A4D5154542050B6
:1059940055424C4953480D0A000000000D0A4D5170
:1059A4005454205741495420464F52205055424C9C
:1059B4004953480D0A0000000D0A4D515454205714
:1059C400414954204E455720434F4D4D414E440DBF
:1059D4000A000000227463703A2F2F33352E3234BC
:1059E400302E3135382E323A383838332200000020
:1059F4002265626F6F73742D6B322200225A6248E3
:105A04007A506235572200000D0A4F4B0D0A0000F0
:105A14000D0A4552524F520D0A0000000D0A504221
:105A240020444F4E450D0A000D0A52454345495640
:105A34004520494D45490D0A000000000D0A524514
:105A44004345495645204854545020524553504FDD
:105A54004E53450D0A0000000D0A52454345495670
:105A6400452056455253494F4E20524553504F4EB0
:105A740053450D0A000000000D0A5245434549569E
:105A840045204649524D5741524520444154410D09
:105A94000A0000000D0A524543454956452046492F
:105AA400524D5741524520434845434B53554D0DA4
:105AB4000A0000000D0A494E5055540D0A0000001A
:105AC4004F4B00004552524F52000000636865631B
